{
  "_format": "hh-sol-artifact-1",
  "contractName": "AccessManagerV2",
  "sourceName": "src/contracts/acl/AccessManagerV2.sol",
  "abi": [
    {
      "inputs": [],
      "stateMutability": "nonpayable",
      "type": "constructor"
    },
    {
      "inputs": [
        {
          "internalType": "address",
          "name": "target",
          "type": "address"
        }
      ],
      "name": "AddressEmptyCode",
      "type": "error"
    },
    {
      "inputs": [],
      "name": "FailedCall",
      "type": "error"
    },
    {
      "anonymous": false,
      "inputs": [
        {
          "indexed": true,
          "internalType": "bytes32",
          "name": "appId",
          "type": "bytes32"
        },
        {
          "indexed": true,
          "internalType": "address",
          "name": "account",
          "type": "address"
        }
      ],
      "name": "AppCreated",
      "type": "event"
    },
    {
      "anonymous": false,
      "inputs": [
        {
          "indexed": true,
          "internalType": "bytes32",
          "name": "appId",
          "type": "bytes32"
        },
        {
          "indexed": true,
          "internalType": "address",
          "name": "previousOwner",
          "type": "address"
        },
        {
          "indexed": true,
          "internalType": "address",
          "name": "newOwner",
          "type": "address"
        }
      ],
      "name": "OwnershipTransferred",
      "type": "event"
    },
    {
      "anonymous": false,
      "inputs": [
        {
          "indexed": false,
          "internalType": "bytes32",
          "name": "appId",
          "type": "bytes32"
        },
        {
          "indexed": true,
          "internalType": "bytes32",
          "name": "role",
          "type": "bytes32"
        },
        {
          "indexed": true,
          "internalType": "address",
          "name": "account",
          "type": "address"
        }
      ],
      "name": "RoleGranted",
      "type": "event"
    },
    {
      "anonymous": false,
      "inputs": [
        {
          "indexed": false,
          "internalType": "bytes32",
          "name": "appId",
          "type": "bytes32"
        },
        {
          "indexed": true,
          "internalType": "bytes32",
          "name": "role",
          "type": "bytes32"
        },
        {
          "indexed": true,
          "internalType": "address",
          "name": "account",
          "type": "address"
        }
      ],
      "name": "RoleRevoked",
      "type": "event"
    },
    {
      "inputs": [
        {
          "internalType": "bytes32",
          "name": "appId",
          "type": "bytes32"
        },
        {
          "internalType": "address",
          "name": "account",
          "type": "address"
        }
      ],
      "name": "createApp",
      "outputs": [],
      "stateMutability": "nonpayable",
      "type": "function"
    },
    {
      "inputs": [
        {
          "internalType": "bytes32",
          "name": "appId",
          "type": "bytes32"
        },
        {
          "internalType": "bytes32",
          "name": "role",
          "type": "bytes32"
        },
        {
          "internalType": "address",
          "name": "account",
          "type": "address"
        }
      ],
      "name": "grantRole",
      "outputs": [],
      "stateMutability": "nonpayable",
      "type": "function"
    },
    {
      "inputs": [
        {
          "internalType": "bytes32",
          "name": "appId",
          "type": "bytes32"
        },
        {
          "internalType": "bytes32",
          "name": "role",
          "type": "bytes32"
        },
        {
          "internalType": "address",
          "name": "account",
          "type": "address"
        }
      ],
      "name": "hasRole",
      "outputs": [
        {
          "internalType": "bool",
          "name": "",
          "type": "bool"
        }
      ],
      "stateMutability": "view",
      "type": "function"
    },
    {
      "inputs": [
        {
          "internalType": "bytes[]",
          "name": "data",
          "type": "bytes[]"
        }
      ],
      "name": "multicall",
      "outputs": [
        {
          "internalType": "bytes[]",
          "name": "results",
          "type": "bytes[]"
        }
      ],
      "stateMutability": "nonpayable",
      "type": "function"
    },
    {
      "inputs": [
        {
          "internalType": "bytes32",
          "name": "appId",
          "type": "bytes32"
        },
        {
          "internalType": "bytes32",
          "name": "role",
          "type": "bytes32"
        },
        {
          "internalType": "address",
          "name": "account",
          "type": "address"
        }
      ],
      "name": "revokeRole",
      "outputs": [],
      "stateMutability": "nonpayable",
      "type": "function"
    },
    {
      "inputs": [
        {
          "internalType": "bytes32",
          "name": "appId",
          "type": "bytes32"
        },
        {
          "internalType": "address",
          "name": "newOwner",
          "type": "address"
        }
      ],
      "name": "transferOwnership",
      "outputs": [],
      "stateMutability": "nonpayable",
      "type": "function"
    }
  ],
  "bytecode": "0x608060405234801561001057600080fd5b506108af806100206000396000f3fe608060405234801561001057600080fd5b50600436106100625760003560e01c80635da28ca61461006757806389f6d72e1461007c578063ac9650d81461008f578063c70b0324146100b8578063ec224ee2146100cb578063ef5d6bbb146100ee575b600080fd5b61007a6100753660046105e2565b610101565b005b61007a61008a3660046105e2565b6101ac565b6100a261009d366004610617565b61024a565b6040516100af91906106b0565b60405180910390f35b61007a6100c636600461072a565b61033d565b6100de6100d93660046105e2565b610405565b60405190151581526020016100af565b61007a6100fc36600461072a565b61043b565b6000838152602081905260409020546001600160a01b031633146101405760405162461bcd60e51b815260040161013790610756565b60405180910390fd5b600083815260016020908152604080832085845282528083206001600160a01b03851680855290835292819020805460ff191690555185815284917fec7493dc610f37a7aba5cecc198fe4c7d06b3d5ee4dac9c0724034555f9cef6191015b60405180910390a3505050565b6000838152602081905260409020546001600160a01b031633146101e25760405162461bcd60e51b815260040161013790610756565b600083815260016020818152604080842086855282528084206001600160a01b03861680865290835293819020805460ff1916909317909255905185815284917f6aa11a04334a3e60ae9970552dce778beb16e895c9466577ed0bcbd8e6472fb6910161019f565b6040805160008152602081019091526060908267ffffffffffffffff811115610275576102756107a3565b6040519080825280602002602001820160405280156102a857816020015b60608152602001906001900390816102935790505b50915060005b8381101561033557610305308686848181106102cc576102cc6107b9565b90506020028101906102de91906107cf565b856040516020016102f19392919061081d565b6040516020818303038152906040526104cb565b838281518110610317576103176107b9565b6020026020010181905250808061032d90610844565b9150506102ae565b505092915050565b6000828152602081905260409020546001600160a01b0316156103ac5760405162461bcd60e51b815260206004820152602160248201527f4163636573734d616e616765723a2041707020616c72656164792065786973746044820152607360f81b6064820152608401610137565b60008281526020819052604080822080546001600160a01b0319166001600160a01b0385169081179091559051909184917f717a7c9da26af991d2e46445c6c4eb03172dfda4038ce263c9a07acafa0f61989190a35050565b600083815260016020908152604080832085845282528083206001600160a01b038516845290915290205460ff165b9392505050565b6000828152602081905260409020546001600160a01b031633146104715760405162461bcd60e51b815260040161013790610756565b60008281526020819052604080822080546001600160a01b0319166001600160a01b03851690811790915590519091339185917f0b659dccc8eb950324170e8d9598af5ee04ee070883eb28651a96788721fbf8391a45050565b6060600080846001600160a01b0316846040516104e8919061085d565b600060405180830381855af49150503d8060008114610523576040519150601f19603f3d011682016040523d82523d6000602084013e610528565b606091505b5091509150610538858383610541565b95945050505050565b606082610556576105518261059d565b610434565b815115801561056d57506001600160a01b0384163b155b1561059657604051639996b31560e01b81526001600160a01b0385166004820152602401610137565b5080610434565b8051156105ad5780518082602001fd5b60405163d6bda27560e01b815260040160405180910390fd5b80356001600160a01b03811681146105dd57600080fd5b919050565b6000806000606084860312156105f757600080fd5b833592506020840135915061060e604085016105c6565b90509250925092565b6000806020838503121561062a57600080fd5b823567ffffffffffffffff8082111561064257600080fd5b818501915085601f83011261065657600080fd5b81358181111561066557600080fd5b8660208260051b850101111561067a57600080fd5b60209290920196919550909350505050565b60005b838110156106a757818101518382015260200161068f565b50506000910152565b6000602080830181845280855180835260408601915060408160051b870101925083870160005b8281101561071d57878503603f19018452815180518087526106fe818989018a850161068c565b601f01601f1916959095018601945092850192908501906001016106d7565b5092979650505050505050565b6000806040838503121561073d57600080fd5b8235915061074d602084016105c6565b90509250929050565b6020808252601b908201527f4163636573734d616e616765723a204e6f7420616e2061646d696e0000000000604082015260600190565b634e487b7160e01b600052601160045260246000fd5b634e487b7160e01b600052604160045260246000fd5b634e487b7160e01b600052603260045260246000fd5b6000808335601e198436030181126107e657600080fd5b83018035915067ffffffffffffffff82111561080157600080fd5b60200191503681900382131561081657600080fd5b9250929050565b82848237600083820160008152835161083a81836020880161068c565b0195945050505050565b6000600182016108565761085661078d565b5060010190565b6000825161086f81846020870161068c565b919091019291505056fea264697066735822122099479ad3e8b68478e85471a43d0e30b1a37a468969d09e87f5f241a77ab5fb7364736f6c63430008140033",
  "linkReferences": {},
  "deployedLinkReferences": {}
}