{
  "_format": "hh-sol-artifact-1",
  "contractName": "EntityTaskManager",
  "sourceName": "src/contracts/EntityTaskManager.sol",
  "abi": [
    {
      "inputs": [
        {
          "internalType": "address",
          "name": "aclAddress",
          "type": "address"
        },
        {
          "internalType": "bytes32",
          "name": "_appId",
          "type": "bytes32"
        }
      ],
      "stateMutability": "nonpayable",
      "type": "constructor"
    },
    {
      "anonymous": false,
      "inputs": [
        {
          "indexed": true,
          "internalType": "string",
          "name": "id",
          "type": "string"
        },
        {
          "indexed": true,
          "internalType": "address",
          "name": "participant",
          "type": "address"
        }
      ],
      "name": "ParticiantApplied",
      "type": "event"
    },
    {
      "anonymous": false,
      "inputs": [
        {
          "indexed": true,
          "internalType": "string",
          "name": "id",
          "type": "string"
        }
      ],
      "name": "TaskAccepted",
      "type": "event"
    },
    {
      "anonymous": false,
      "inputs": [
        {
          "indexed": true,
          "internalType": "string",
          "name": "id",
          "type": "string"
        },
        {
          "indexed": true,
          "internalType": "address",
          "name": "approver",
          "type": "address"
        }
      ],
      "name": "TaskApproved",
      "type": "event"
    },
    {
      "anonymous": false,
      "inputs": [
        {
          "indexed": true,
          "internalType": "string",
          "name": "id",
          "type": "string"
        },
        {
          "indexed": true,
          "internalType": "address",
          "name": "participant",
          "type": "address"
        }
      ],
      "name": "TaskCompleted",
      "type": "event"
    },
    {
      "anonymous": false,
      "inputs": [
        {
          "indexed": true,
          "internalType": "string",
          "name": "id",
          "type": "string"
        },
        {
          "indexed": true,
          "internalType": "address",
          "name": "createdBy",
          "type": "address"
        }
      ],
      "name": "TaskCreated",
      "type": "event"
    },
    {
      "inputs": [],
      "name": "ENTITY_OWNER",
      "outputs": [
        {
          "internalType": "bytes32",
          "name": "",
          "type": "bytes32"
        }
      ],
      "stateMutability": "view",
      "type": "function"
    },
    {
      "inputs": [],
      "name": "PARTICIPANT",
      "outputs": [
        {
          "internalType": "bytes32",
          "name": "",
          "type": "bytes32"
        }
      ],
      "stateMutability": "view",
      "type": "function"
    },
    {
      "inputs": [
        {
          "internalType": "string",
          "name": "taskId",
          "type": "string"
        },
        {
          "internalType": "address",
          "name": "participant",
          "type": "address"
        }
      ],
      "name": "acceptParticipant",
      "outputs": [],
      "stateMutability": "nonpayable",
      "type": "function"
    },
    {
      "inputs": [],
      "name": "acl",
      "outputs": [
        {
          "internalType": "contract IAccessManagerV2",
          "name": "",
          "type": "address"
        }
      ],
      "stateMutability": "view",
      "type": "function"
    },
    {
      "inputs": [],
      "name": "appId",
      "outputs": [
        {
          "internalType": "bytes32",
          "name": "",
          "type": "bytes32"
        }
      ],
      "stateMutability": "view",
      "type": "function"
    },
    {
      "inputs": [
        {
          "internalType": "string",
          "name": "taskId",
          "type": "string"
        }
      ],
      "name": "completeTask",
      "outputs": [],
      "stateMutability": "nonpayable",
      "type": "function"
    },
    {
      "inputs": [
        {
          "components": [
            {
              "internalType": "string",
              "name": "detailsUrl",
              "type": "string"
            },
            {
              "internalType": "address",
              "name": "rewardToken",
              "type": "address"
            },
            {
              "internalType": "uint256",
              "name": "rewardAmount",
              "type": "uint256"
            },
            {
              "internalType": "address[]",
              "name": "allowedWallets",
              "type": "address[]"
            },
            {
              "internalType": "uint256",
              "name": "maxParticipants",
              "type": "uint256"
            },
            {
              "internalType": "uint256",
              "name": "expiryDate",
              "type": "uint256"
            },
            {
              "internalType": "address",
              "name": "owner",
              "type": "address"
            },
            {
              "internalType": "bool",
              "name": "isActive",
              "type": "bool"
            }
          ],
          "internalType": "struct IEntityTaskManager.Task",
          "name": "task",
          "type": "tuple"
        }
      ],
      "name": "createTask",
      "outputs": [],
      "stateMutability": "nonpayable",
      "type": "function"
    },
    {
      "inputs": [
        {
          "internalType": "string",
          "name": "taskId",
          "type": "string"
        }
      ],
      "name": "participate",
      "outputs": [],
      "stateMutability": "nonpayable",
      "type": "function"
    },
    {
      "inputs": [
        {
          "internalType": "string",
          "name": "",
          "type": "string"
        }
      ],
      "name": "taskAssignments",
      "outputs": [
        {
          "internalType": "address",
          "name": "participant",
          "type": "address"
        },
        {
          "internalType": "enum IEntityTaskManager.STATUS",
          "name": "status",
          "type": "uint8"
        }
      ],
      "stateMutability": "view",
      "type": "function"
    },
    {
      "inputs": [
        {
          "internalType": "string",
          "name": "",
          "type": "string"
        }
      ],
      "name": "tasks",
      "outputs": [
        {
          "internalType": "string",
          "name": "detailsUrl",
          "type": "string"
        },
        {
          "internalType": "address",
          "name": "rewardToken",
          "type": "address"
        },
        {
          "internalType": "uint256",
          "name": "rewardAmount",
          "type": "uint256"
        },
        {
          "internalType": "uint256",
          "name": "maxParticipants",
          "type": "uint256"
        },
        {
          "internalType": "uint256",
          "name": "expiryDate",
          "type": "uint256"
        },
        {
          "internalType": "address",
          "name": "owner",
          "type": "address"
        },
        {
          "internalType": "bool",
          "name": "isActive",
          "type": "bool"
        }
      ],
      "stateMutability": "view",
      "type": "function"
    },
    {
      "inputs": [
        {
          "internalType": "string",
          "name": "taskId",
          "type": "string"
        }
      ],
      "name": "verifyCompletion",
      "outputs": [],
      "stateMutability": "nonpayable",
      "type": "function"
    }
  ],
  "bytecode": "0x608060405234801561001057600080fd5b506040516117cf3803806117cf83398101604081905261002f91610058565b600080546001600160a01b0319166001600160a01b039390931692909217909155600355610092565b6000806040838503121561006b57600080fd5b82516001600160a01b038116811461008257600080fd5b6020939093015192949293505050565b61172e806100a16000396000f3fe608060405234801561001057600080fd5b50600436106100a95760003560e01c8063d453365811610071578063d45336581461016a578063dba8883614610191578063de287359146101a4578063ef1c3f2e146101cf578063f3e4b0b9146101e2578063faa6879e1461020957600080fd5b8063095d6377146100ae5780631d27769f14610105578063394c244b1461011a57806358709cf21461012d57806380afdea814610153575b600080fd5b6100ee6100bc3660046111d4565b80516020818301810180516002825292820191909301209152546001600160a01b03811690600160a01b900460ff1682565b6040516100fc929190611227565b60405180910390f35b6101186101133660046111d4565b61021c565b005b6101186101283660046111d4565b6105e4565b61014061013b3660046111d4565b610901565b6040516100fc9796959493929190611286565b61015c60035481565b6040519081526020016100fc565b61015c7f491c88fbf1ec5e61d069a802e9515b5bc9c8c789c56bd5c128c49a29aa82dce481565b61011861019f3660046111d4565b6109e3565b6000546101b7906001600160a01b031681565b6040516001600160a01b0390911681526020016100fc565b6101186101dd36600461130b565b610bf7565b61015c7fcd121b0f12ad3ac664bfec4c6cdef2ec02345000d81f4e9e651075fc22d1b9b581565b6101186102173660046113fc565b610e91565b600054600354604051637611277160e11b815260048101919091527fcd121b0f12ad3ac664bfec4c6cdef2ec02345000d81f4e9e651075fc22d1b9b560248201819052336044830152916001600160a01b03169063ec224ee290606401602060405180830381865afa158015610296573d6000803e3d6000fd5b505050506040513d601f19601f820116820180604052508101906102ba91906114df565b6102df5760405162461bcd60e51b81526004016102d690611503565b60405180910390fd5b6001826040516102ef919061152a565b9081526040519081900360200190206006015460ff600160a01b909104166103295760405162461bcd60e51b81526004016102d690611546565b4260018360405161033a919061152a565b9081526020016040518091039020600501541161038b5760405162461bcd60e51b815260206004820152600f60248201526e15185cdac81a5cc8195e1c1a5c9959608a1b60448201526064016102d6565b6000805b60018460405161039f919061152a565b9081526040519081900360200190206003015481101561042a57336001600160a01b03166001856040516103d3919061152a565b908152602001604051809103902060030182815481106103f5576103f5611572565b6000918252602090912001546001600160a01b031603610418576001915061042a565b8061042281611588565b91505061038f565b508061048a5760405162461bcd60e51b815260206004820152602960248201527f55736572206973206e6f7420616c6c6f77656420746f206170706c7920666f7260448201526820746865207461736b60b81b60648201526084016102d6565b60006001600160a01b03166002846040516104a5919061152a565b908152604051908190036020019020546001600160a01b03161461051b5760405162461bcd60e51b815260206004820152602760248201527f5573657220697320616c7265616479207265676973746572656420666f7220746044820152666865207461736b60c81b60648201526084016102d6565b60408051808201825233815260006020820152905160029061053e90869061152a565b908152604051908190036020908101909120825181546001600160a01b039091166001600160a01b031982168117835592840151919283916001600160a81b03191617600160a01b83600381111561059857610598611211565b0217905550506040513391506105af90859061152a565b604051908190038120907ffc762b2798f444f4198f74c220118a0c9c4f1d13878f76ab583abfad2bc232a690600090a3505050565b600054600354604051637611277160e11b815260048101919091527fcd121b0f12ad3ac664bfec4c6cdef2ec02345000d81f4e9e651075fc22d1b9b560248201819052336044830152916001600160a01b03169063ec224ee290606401602060405180830381865afa15801561065e573d6000803e3d6000fd5b505050506040513d601f19601f8201168201806040525081019061068291906114df565b61069e5760405162461bcd60e51b81526004016102d690611503565b336001600160a01b03166002836040516106b8919061152a565b908152604051908190036020019020546001600160a01b03161461072f5760405162461bcd60e51b815260206004820152602860248201527f55736572206973206e6f7420616c6c6f77656420746f20636f6d706c65746520604482015267746865207461736b60c01b60648201526084016102d6565b6001600283604051610741919061152a565b9081526040519081900360200190205460ff600160a01b90910416600381111561076d5761076d611211565b146107cc5760405162461bcd60e51b815260206004820152602960248201527f5461736b206973206e6f74206163636570746564206f7220616c72656164792060448201526818dbdb5c1b195d195960ba1b60648201526084016102d6565b426001836040516107dd919061152a565b9081526020016040518091039020600501541161082e5760405162461bcd60e51b815260206004820152600f60248201526e15185cdac81a5cc8195e1c1a5c9959608a1b60448201526064016102d6565b60018260405161083e919061152a565b9081526040519081900360200190206006015460ff600160a01b909104166108785760405162461bcd60e51b81526004016102d690611546565b60028083604051610889919061152a565b908152604051908190036020019020805460ff60a01b1916600160a01b8360038111156108b8576108b8611211565b021790555060405133906108cd90849061152a565b604051908190038120907ffe986ca46e765f251f5ba987fec1dcd17302f3cfc95a8e25dbff74bbf426704090600090a35050565b8051602081830181018051600182529282019190930120915280548190610927906115af565b80601f0160208091040260200160405190810160405280929190818152602001828054610953906115af565b80156109a05780601f10610975576101008083540402835291602001916109a0565b820191906000526020600020905b81548152906001019060200180831161098357829003601f168201915b505050600184015460028501546004860154600587015460069097015495966001600160a01b03938416969295509093509181169060ff600160a01b9091041687565b336001600160a01b03166001826040516109fd919061152a565b908152604051908190036020019020600601546001600160a01b031614610a665760405162461bcd60e51b815260206004820152601860248201527f6e6f742061206f776e6572206f662074686973207461736b000000000000000060448201526064016102d6565b600181604051610a76919061152a565b9081526040519081900360200190206006015460ff600160a01b90910416610ab05760405162461bcd60e51b81526004016102d690611546565b60028082604051610ac1919061152a565b9081526040519081900360200190205460ff600160a01b909104166003811115610aed57610aed611211565b14610b325760405162461bcd60e51b815260206004820152601560248201527415185cdac81a5cc81b9bdd0818dbdb5c1b195d1959605a1b60448201526064016102d6565b6003600282604051610b44919061152a565b908152604051908190036020019020805460ff60a01b1916600160a01b836003811115610b7357610b73611211565b02179055506000600182604051610b8a919061152a565b9081526040519081900360200181206006018054921515600160a01b0260ff60a01b19909316929092179091553390610bc490839061152a565b604051908190038120907f69b634c8ef3fd12d17de538477ff3bfecd608f357e55016b5ae6cb22aefb32da90600090a350565b600054600354604051637611277160e11b815260048101919091527f491c88fbf1ec5e61d069a802e9515b5bc9c8c789c56bd5c128c49a29aa82dce460248201819052336044830152916001600160a01b03169063ec224ee290606401602060405180830381865afa158015610c71573d6000803e3d6000fd5b505050506040513d601f19601f82011682018060405250810190610c9591906114df565b610cb15760405162461bcd60e51b81526004016102d690611503565b60006001600160a01b0316600184604051610ccc919061152a565b908152604051908190036020019020600601546001600160a01b031603610d2b5760405162461bcd60e51b815260206004820152601360248201527215185cdac8191bd95cc81b9bdd08195e1a5cdd606a1b60448201526064016102d6565b600183604051610d3b919061152a565b9081526040519081900360200190206006015460ff600160a01b90910416610d755760405162461bcd60e51b81526004016102d690611546565b816001600160a01b0316600284604051610d8f919061152a565b908152604051908190036020019020546001600160a01b031614610e085760405162461bcd60e51b815260206004820152602a60248201527f5061727469636970616e74206973206e6f74207265676973746572656420666f6044820152697220746865207461736b60b01b60648201526084016102d6565b6001600284604051610e1a919061152a565b908152604051908190036020019020805460ff60a01b1916600160a01b836003811115610e4957610e49611211565b021790555082604051610e5c919061152a565b604051908190038120907f1f6fb692623f6acd2e774f583d32ae14d83a189965e9e8e87ee42509698118d590600090a2505050565b600054600354604051637611277160e11b815260048101919091527f491c88fbf1ec5e61d069a802e9515b5bc9c8c789c56bd5c128c49a29aa82dce460248201819052336044830152916001600160a01b03169063ec224ee290606401602060405180830381865afa158015610f0b573d6000803e3d6000fd5b505050506040513d601f19601f82011682018060405250810190610f2f91906114df565b610f4b5760405162461bcd60e51b81526004016102d690611503565b60c08201516001600160a01b0316610f64573360c08301525b8160018360000151604051610f79919061152a565b90815260405190819003602001902081518190610f969082611638565b506020828101516001830180546001600160a01b0319166001600160a01b039092169190911790556040830151600283015560608301518051610fdf9260038501920190611079565b506080820151600482015560a0820151600582015560c0808301516006909201805460e0909401511515600160a01b026001600160a81b03199094166001600160a01b03938416179390931790925590830151835160405191909216916110459161152a565b604051908190038120907ffd7f22a108ff44782e6a1eda45c97e9a381ba882d264e03d9f369c1ed0063cf890600090a35050565b8280548282559060005260206000209081019282156110ce579160200282015b828111156110ce57825182546001600160a01b0319166001600160a01b03909116178255602090920191600190910190611099565b506110da9291506110de565b5090565b5b808211156110da57600081556001016110df565b634e487b7160e01b600052604160045260246000fd5b604051610100810167ffffffffffffffff8111828210171561112d5761112d6110f3565b60405290565b604051601f8201601f1916810167ffffffffffffffff8111828210171561115c5761115c6110f3565b604052919050565b600082601f83011261117557600080fd5b813567ffffffffffffffff81111561118f5761118f6110f3565b6111a2601f8201601f1916602001611133565b8181528460208386010111156111b757600080fd5b816020850160208301376000918101602001919091529392505050565b6000602082840312156111e657600080fd5b813567ffffffffffffffff8111156111fd57600080fd5b61120984828501611164565b949350505050565b634e487b7160e01b600052602160045260246000fd5b6001600160a01b0383168152604081016004831061125557634e487b7160e01b600052602160045260246000fd5b8260208301529392505050565b60005b8381101561127d578181015183820152602001611265565b50506000910152565b60e08152600088518060e08401526101006112a78282860160208e01611262565b6001600160a01b03998a16602085015260408401989098526060830196909652506080810193909352941660a082015292151560c0840152601f01601f191690910101919050565b80356001600160a01b038116811461130657600080fd5b919050565b6000806040838503121561131e57600080fd5b823567ffffffffffffffff81111561133557600080fd5b61134185828601611164565b925050611350602084016112ef565b90509250929050565b600082601f83011261136a57600080fd5b8135602067ffffffffffffffff821115611386576113866110f3565b8160051b611395828201611133565b92835284810182019282810190878511156113af57600080fd5b83870192505b848310156113d5576113c6836112ef565b825291830191908301906113b5565b979650505050505050565b80151581146113ee57600080fd5b50565b8035611306816113e0565b60006020828403121561140e57600080fd5b813567ffffffffffffffff8082111561142657600080fd5b90830190610100828603121561143b57600080fd5b611443611109565b82358281111561145257600080fd5b61145e87828601611164565b82525061146d602084016112ef565b60208201526040830135604082015260608301358281111561148e57600080fd5b61149a87828601611359565b6060830152506080830135608082015260a083013560a08201526114c060c084016112ef565b60c08201526114d160e084016113f1565b60e082015295945050505050565b6000602082840312156114f157600080fd5b81516114fc816113e0565b9392505050565b6020808252600d908201526c1058d8d95cdcc811195b9a5959609a1b604082015260600190565b6000825161153c818460208701611262565b9190910192915050565b6020808252601290820152715461736b206973206e6f742061637469766560701b604082015260600190565b634e487b7160e01b600052603260045260246000fd5b6000600182016115a857634e487b7160e01b600052601160045260246000fd5b5060010190565b600181811c908216806115c357607f821691505b6020821081036115e357634e487b7160e01b600052602260045260246000fd5b50919050565b601f82111561163357600081815260208120601f850160051c810160208610156116105750805b601f850160051c820191505b8181101561162f5782815560010161161c565b5050505b505050565b815167ffffffffffffffff811115611652576116526110f3565b6116668161166084546115af565b846115e9565b602080601f83116001811461169b57600084156116835750858301515b600019600386901b1c1916600185901b17855561162f565b600085815260208120601f198616915b828110156116ca578886015182559484019460019091019084016116ab565b50858210156116e85787850151600019600388901b60f8161c191681555b5050505050600190811b0190555056fea26469706673582212204d525d488078cb186b5c9325cff615c52294dc111f6133f3fa442d7827e02ef564736f6c63430008140033",
  "linkReferences": {},
  "deployedLinkReferences": {}
}