{
  "_format": "hh-sol-artifact-1",
  "contractName": "RewardClaimer",
  "sourceName": "src/contracts/RewardClaimer.sol",
  "abi": [
    {
      "inputs": [
        {
          "internalType": "address",
          "name": "_rewardToken",
          "type": "address"
        }
      ],
      "stateMutability": "nonpayable",
      "type": "constructor"
    },
    {
      "anonymous": false,
      "inputs": [
        {
          "indexed": true,
          "internalType": "address",
          "name": "token",
          "type": "address"
        },
        {
          "indexed": true,
          "internalType": "bytes32",
          "name": "repoId",
          "type": "bytes32"
        },
        {
          "indexed": false,
          "internalType": "uint256",
          "name": "claimableAmount",
          "type": "uint256"
        }
      ],
      "name": "UpdatedClaimAmount",
      "type": "event"
    },
    {
      "inputs": [
        {
          "internalType": "bytes32",
          "name": "_repoId",
          "type": "bytes32"
        },
        {
          "internalType": "uint256",
          "name": "_PrId",
          "type": "uint256"
        }
      ],
      "name": "claimReward",
      "outputs": [],
      "stateMutability": "nonpayable",
      "type": "function"
    },
    {
      "inputs": [
        {
          "internalType": "bytes32",
          "name": "",
          "type": "bytes32"
        }
      ],
      "name": "claimableAmount",
      "outputs": [
        {
          "internalType": "uint256",
          "name": "",
          "type": "uint256"
        }
      ],
      "stateMutability": "view",
      "type": "function"
    },
    {
      "inputs": [
        {
          "internalType": "bytes32",
          "name": "",
          "type": "bytes32"
        },
        {
          "internalType": "uint256",
          "name": "",
          "type": "uint256"
        }
      ],
      "name": "claimer",
      "outputs": [
        {
          "internalType": "address",
          "name": "",
          "type": "address"
        }
      ],
      "stateMutability": "view",
      "type": "function"
    },
    {
      "inputs": [],
      "name": "rewardToken",
      "outputs": [
        {
          "internalType": "contract IERC20",
          "name": "",
          "type": "address"
        }
      ],
      "stateMutability": "view",
      "type": "function"
    },
    {
      "inputs": [
        {
          "internalType": "address",
          "name": "_tokenAddress",
          "type": "address"
        },
        {
          "internalType": "bytes32",
          "name": "_repoId",
          "type": "bytes32"
        },
        {
          "internalType": "uint256",
          "name": "_claimableAmount",
          "type": "uint256"
        }
      ],
      "name": "updateClaimAmount",
      "outputs": [],
      "stateMutability": "nonpayable",
      "type": "function"
    }
  ],
  "bytecode": "0x608060405234801561001057600080fd5b506040516103fd3803806103fd83398101604081905261002f91610054565b600080546001600160a01b0319166001600160a01b0392909216919091179055610084565b60006020828403121561006657600080fd5b81516001600160a01b038116811461007d57600080fd5b9392505050565b61036a806100936000396000f3fe608060405234801561001057600080fd5b50600436106100575760003560e01c806315836ade1461005c578063178998361461008f57806354e0b451146100db578063f702e4e4146100f0578063f7c618c114610103575b600080fd5b61007c61006a36600461028f565b60016020526000908152604090205481565b6040519081526020015b60405180910390f35b6100c361009d3660046102a8565b60026020908152600092835260408084209091529082529020546001600160a01b031681565b6040516001600160a01b039091168152602001610086565b6100ee6100e93660046102a8565b610116565b005b6100ee6100fe3660046102ca565b610232565b6000546100c3906001600160a01b031681565b60008281526002602090815260408083208484529091529020546001600160a01b0316156101835760405162461bcd60e51b815260206004820152601660248201527514995dd85c9908185b1c9958591e4818db185a5b595960521b604482015260640160405180910390fd5b6000828152600260209081526040808320848452825280832080546001600160a01b03191633908117909155835486855260019093529281902054905163a9059cbb60e01b8152600481019390935260248301526001600160a01b03169063a9059cbb906044016020604051808303816000875af1158015610209573d6000803e3d6000fd5b505050506040513d601f19601f8201168201806040525081019061022d919061030b565b505050565b600082815260016020526040908190208290555182906001600160a01b038516907f238f05836fa9c0474c3b492be14243231a5aebfda45fe1181cbb9fabd033d3e1906102829085815260200190565b60405180910390a3505050565b6000602082840312156102a157600080fd5b5035919050565b600080604083850312156102bb57600080fd5b50508035926020909101359150565b6000806000606084860312156102df57600080fd5b83356001600160a01b03811681146102f657600080fd5b95602085013595506040909401359392505050565b60006020828403121561031d57600080fd5b8151801515811461032d57600080fd5b939250505056fea2646970667358221220def98f3f0a1ea1be20ff0fb77a13e38ab2469d83905d9f57d3aaec84c51c9abe64736f6c63430008140033",
  "linkReferences": {},
  "deployedLinkReferences": {}
}