{
  "_format": "hh-sol-artifact-1",
  "contractName": "RewardSystem",
  "sourceName": "src/contracts/task/TaskManagementV2.sol",
  "abi": [
    {
      "inputs": [
        {
          "internalType": "address",
          "name": "aclAddress",
          "type": "address"
        },
        {
          "internalType": "bytes32",
          "name": "_appId",
          "type": "bytes32"
        }
      ],
      "stateMutability": "nonpayable",
      "type": "constructor"
    },
    {
      "anonymous": false,
      "inputs": [
        {
          "indexed": true,
          "internalType": "string",
          "name": "id",
          "type": "string"
        }
      ],
      "name": "AssignmentAccepted",
      "type": "event"
    },
    {
      "anonymous": false,
      "inputs": [
        {
          "indexed": true,
          "internalType": "string",
          "name": "id",
          "type": "string"
        }
      ],
      "name": "AssignmentCompleted",
      "type": "event"
    },
    {
      "anonymous": false,
      "inputs": [
        {
          "indexed": true,
          "internalType": "string",
          "name": "id",
          "type": "string"
        }
      ],
      "name": "TaskAccepted",
      "type": "event"
    },
    {
      "anonymous": false,
      "inputs": [
        {
          "indexed": true,
          "internalType": "string",
          "name": "id",
          "type": "string"
        }
      ],
      "name": "TaskApproved",
      "type": "event"
    },
    {
      "anonymous": false,
      "inputs": [
        {
          "indexed": true,
          "internalType": "string",
          "name": "id",
          "type": "string"
        },
        {
          "indexed": true,
          "internalType": "address",
          "name": "createdBy",
          "type": "address"
        }
      ],
      "name": "TaskCreated",
      "type": "event"
    },
    {
      "inputs": [],
      "name": "ENTITY_OWNER",
      "outputs": [
        {
          "internalType": "bytes32",
          "name": "",
          "type": "bytes32"
        }
      ],
      "stateMutability": "view",
      "type": "function"
    },
    {
      "inputs": [],
      "name": "PARTICIPANT",
      "outputs": [
        {
          "internalType": "bytes32",
          "name": "",
          "type": "bytes32"
        }
      ],
      "stateMutability": "view",
      "type": "function"
    },
    {
      "inputs": [],
      "name": "TASK_OWNER",
      "outputs": [
        {
          "internalType": "bytes32",
          "name": "",
          "type": "bytes32"
        }
      ],
      "stateMutability": "view",
      "type": "function"
    },
    {
      "inputs": [],
      "name": "acl",
      "outputs": [
        {
          "internalType": "contract IAccessManagerV2",
          "name": "",
          "type": "address"
        }
      ],
      "stateMutability": "view",
      "type": "function"
    },
    {
      "inputs": [
        {
          "internalType": "string",
          "name": "taskId",
          "type": "string"
        }
      ],
      "name": "approveTask",
      "outputs": [],
      "stateMutability": "nonpayable",
      "type": "function"
    },
    {
      "inputs": [
        {
          "internalType": "string",
          "name": "taskId",
          "type": "string"
        }
      ],
      "name": "completeAssignment",
      "outputs": [],
      "stateMutability": "nonpayable",
      "type": "function"
    },
    {
      "inputs": [
        {
          "components": [
            {
              "internalType": "string",
              "name": "detailsUrl",
              "type": "string"
            },
            {
              "internalType": "address",
              "name": "rewardToken",
              "type": "address"
            },
            {
              "internalType": "uint256",
              "name": "rewardAmount",
              "type": "uint256"
            },
            {
              "internalType": "address[]",
              "name": "allowedWallets",
              "type": "address[]"
            },
            {
              "internalType": "uint256",
              "name": "expiryDate",
              "type": "uint256"
            },
            {
              "internalType": "address",
              "name": "owner",
              "type": "address"
            },
            {
              "internalType": "bool",
              "name": "isActive",
              "type": "bool"
            }
          ],
          "internalType": "struct RewardSystem.Task",
          "name": "task",
          "type": "tuple"
        }
      ],
      "name": "createTask",
      "outputs": [],
      "stateMutability": "nonpayable",
      "type": "function"
    },
    {
      "inputs": [
        {
          "internalType": "string",
          "name": "taskId",
          "type": "string"
        }
      ],
      "name": "registerToTask",
      "outputs": [],
      "stateMutability": "nonpayable",
      "type": "function"
    },
    {
      "inputs": [
        {
          "internalType": "string",
          "name": "",
          "type": "string"
        }
      ],
      "name": "taskAssignments",
      "outputs": [
        {
          "internalType": "address",
          "name": "participant",
          "type": "address"
        },
        {
          "internalType": "enum RewardSystem.STATUS",
          "name": "status",
          "type": "uint8"
        }
      ],
      "stateMutability": "view",
      "type": "function"
    },
    {
      "inputs": [
        {
          "internalType": "string",
          "name": "",
          "type": "string"
        }
      ],
      "name": "tasks",
      "outputs": [
        {
          "internalType": "string",
          "name": "detailsUrl",
          "type": "string"
        },
        {
          "internalType": "address",
          "name": "rewardToken",
          "type": "address"
        },
        {
          "internalType": "uint256",
          "name": "rewardAmount",
          "type": "uint256"
        },
        {
          "internalType": "uint256",
          "name": "expiryDate",
          "type": "uint256"
        },
        {
          "internalType": "address",
          "name": "owner",
          "type": "address"
        },
        {
          "internalType": "bool",
          "name": "isActive",
          "type": "bool"
        }
      ],
      "stateMutability": "view",
      "type": "function"
    }
  ],
  "bytecode": "0x608060405234801561001057600080fd5b506040516114a93803806114a983398101604081905261002f91610058565b600080546001600160a01b0319166001600160a01b039390931692909217909155600355610092565b6000806040838503121561006b57600080fd5b82516001600160a01b038116811461008257600080fd5b6020939093015192949293505050565b611408806100a16000396000f3fe608060405234801561001057600080fd5b506004361061009e5760003560e01c806378a9c8191161006657806378a9c8191461017c578063d1ee035c1461018f578063d4533658146101a2578063de287359146101c9578063f3e4b0b9146101f457600080fd5b8063095d6377146100a357806334a42174146100fa5780633b0171531461010f57806358709cf21461014457806365c3c05d14610169575b600080fd5b6100e36100b1366004610f11565b80516020818301810180516002825292820191909301209152546001600160a01b03811690600160a01b900460ff1682565b6040516100f1929190610f64565b60405180910390f35b61010d610108366004610f11565b61021b565b005b6101367f3ca9139601e1e8a5b6a44b7578634fdecbce1c6dbdf1fd1fcd97e1a0aa10c94481565b6040519081526020016100f1565b610157610152366004610f11565b6105a3565b6040516100f196959493929190610fc3565b61010d6101773660046110e1565b61067d565b61010d61018a366004610f11565b61085b565b61010d61019d366004610f11565b610b38565b6101367f491c88fbf1ec5e61d069a802e9515b5bc9c8c789c56bd5c128c49a29aa82dce481565b6000546101dc906001600160a01b031681565b6040516001600160a01b0390911681526020016100f1565b6101367fcd121b0f12ad3ac664bfec4c6cdef2ec02345000d81f4e9e651075fc22d1b9b581565b600054600354604051637611277160e11b815260048101919091527fcd121b0f12ad3ac664bfec4c6cdef2ec02345000d81f4e9e651075fc22d1b9b560248201819052336044830152916001600160a01b03169063ec224ee290606401602060405180830381865afa158015610295573d6000803e3d6000fd5b505050506040513d601f19601f820116820180604052508101906102b991906111b9565b6102de5760405162461bcd60e51b81526004016102d5906111dd565b60405180910390fd5b6001826040516102ee9190611204565b9081526040519081900360200190206005015460ff600160a01b909104166103285760405162461bcd60e51b81526004016102d590611220565b426001836040516103399190611204565b9081526020016040518091039020600401541161038a5760405162461bcd60e51b815260206004820152600f60248201526e15185cdac81a5cc8195e1c1a5c9959608a1b60448201526064016102d5565b6000805b60018460405161039e9190611204565b9081526040519081900360200190206003015481101561042957336001600160a01b03166001856040516103d29190611204565b908152602001604051809103902060030182815481106103f4576103f461124c565b6000918252602090912001546001600160a01b0316036104175760019150610429565b8061042181611262565b91505061038e565b50806104895760405162461bcd60e51b815260206004820152602960248201527f55736572206973206e6f7420616c6c6f77656420746f206170706c7920666f7260448201526820746865207461736b60b81b60648201526084016102d5565b60006001600160a01b03166002846040516104a49190611204565b908152604051908190036020019020546001600160a01b03161461051a5760405162461bcd60e51b815260206004820152602760248201527f5573657220697320616c7265616479207265676973746572656420666f7220746044820152666865207461736b60c81b60648201526084016102d5565b60408051808201825233815260006020820152905160029061053d908690611204565b908152604051908190036020908101909120825181546001600160a01b039091166001600160a01b031982168117835592840151919283916001600160a81b03191617600160a01b83600381111561059757610597610f4e565b02179055505050505050565b80516020818301810180516001825292820191909301209152805481906105c990611289565b80601f01602080910402602001604051908101604052809291908181526020018280546105f590611289565b80156106425780601f1061061757610100808354040283529160200191610642565b820191906000526020600020905b81548152906001019060200180831161062557829003601f168201915b5050505060018301546002840154600485015460059095015493946001600160a01b039283169491935091811690600160a01b900460ff1686565b600054600354604051637611277160e11b815260048101919091527f491c88fbf1ec5e61d069a802e9515b5bc9c8c789c56bd5c128c49a29aa82dce460248201819052336044830152916001600160a01b03169063ec224ee290606401602060405180830381865afa1580156106f7573d6000803e3d6000fd5b505050506040513d601f19601f8201168201806040525081019061071b91906111b9565b6107375760405162461bcd60e51b81526004016102d5906111dd565b60a08201516001600160a01b0316610750573360a08301525b81600183600001516040516107659190611204565b908152604051908190036020019020815181906107829082611312565b506020828101516001830180546001600160a01b0319166001600160a01b0390921691909117905560408301516002830155606083015180516107cb9260038501920190610db7565b506080820151600482015560a0808301516005909201805460c0909401511515600160a01b026001600160a81b03199094166001600160a01b039384161793909317909255908301518351604051919092169161082791611204565b604051908190038120907ffd7f22a108ff44782e6a1eda45c97e9a381ba882d264e03d9f369c1ed0063cf890600090a35050565b600054600354604051637611277160e11b815260048101919091527fcd121b0f12ad3ac664bfec4c6cdef2ec02345000d81f4e9e651075fc22d1b9b560248201819052336044830152916001600160a01b03169063ec224ee290606401602060405180830381865afa1580156108d5573d6000803e3d6000fd5b505050506040513d601f19601f820116820180604052508101906108f991906111b9565b6109155760405162461bcd60e51b81526004016102d5906111dd565b336001600160a01b031660028360405161092f9190611204565b908152604051908190036020019020546001600160a01b0316146109a65760405162461bcd60e51b815260206004820152602860248201527f55736572206973206e6f7420616c6c6f77656420746f20636f6d706c65746520604482015267746865207461736b60c01b60648201526084016102d5565b60016002836040516109b89190611204565b9081526040519081900360200190205460ff600160a01b9091041660038111156109e4576109e4610f4e565b14610a435760405162461bcd60e51b815260206004820152602960248201527f5461736b206973206e6f74206163636570746564206f7220616c72656164792060448201526818dbdb5c1b195d195960ba1b60648201526084016102d5565b42600183604051610a549190611204565b90815260200160405180910390206004015411610aa55760405162461bcd60e51b815260206004820152600f60248201526e15185cdac81a5cc8195e1c1a5c9959608a1b60448201526064016102d5565b600182604051610ab59190611204565b9081526040519081900360200190206005015460ff600160a01b90910416610aef5760405162461bcd60e51b81526004016102d590611220565b60028083604051610b009190611204565b908152604051908190036020019020805460ff60a01b1916600160a01b836003811115610b2f57610b2f610f4e565b02179055505050565b600054600354604051637611277160e11b815260048101919091527f491c88fbf1ec5e61d069a802e9515b5bc9c8c789c56bd5c128c49a29aa82dce460248201819052336044830152916001600160a01b03169063ec224ee290606401602060405180830381865afa158015610bb2573d6000803e3d6000fd5b505050506040513d601f19601f82011682018060405250810190610bd691906111b9565b610bf25760405162461bcd60e51b81526004016102d5906111dd565b60006001600160a01b0316600183604051610c0d9190611204565b908152604051908190036020019020600501546001600160a01b031603610c6c5760405162461bcd60e51b815260206004820152601360248201527215185cdac8191bd95cc81b9bdd08195e1a5cdd606a1b60448201526064016102d5565b600182604051610c7c9190611204565b9081526040519081900360200190206005015460ff600160a01b90910416610cb65760405162461bcd60e51b81526004016102d590611220565b6003600283604051610cc89190611204565b9081526040519081900360200190205460ff600160a01b909104166003811115610cf457610cf4610f4e565b14610d395760405162461bcd60e51b815260206004820152601560248201527415185cdac81a5cc81b9bdd0818dbdb5c1b195d1959605a1b60448201526064016102d5565b6000600183604051610d4b9190611204565b9081526040519081900360200181206005018054921515600160a01b0260ff60a01b1990931692909217909155610d83908390611204565b604051908190038120907f8f126317b15e6c8081b3bfed1fa78c0db5c7fc8ed2f1feb6eb0467028282084890600090a25050565b828054828255906000526020600020908101928215610e0c579160200282015b82811115610e0c57825182546001600160a01b0319166001600160a01b03909116178255602090920191600190910190610dd7565b50610e18929150610e1c565b5090565b5b80821115610e185760008155600101610e1d565b634e487b7160e01b600052604160045260246000fd5b60405160e0810167ffffffffffffffff81118282101715610e6a57610e6a610e31565b60405290565b604051601f8201601f1916810167ffffffffffffffff81118282101715610e9957610e99610e31565b604052919050565b600082601f830112610eb257600080fd5b813567ffffffffffffffff811115610ecc57610ecc610e31565b610edf601f8201601f1916602001610e70565b818152846020838601011115610ef457600080fd5b816020850160208301376000918101602001919091529392505050565b600060208284031215610f2357600080fd5b813567ffffffffffffffff811115610f3a57600080fd5b610f4684828501610ea1565b949350505050565b634e487b7160e01b600052602160045260246000fd5b6001600160a01b03831681526040810160048310610f9257634e487b7160e01b600052602160045260246000fd5b8260208301529392505050565b60005b83811015610fba578181015183820152602001610fa2565b50506000910152565b60c08152600087518060c0840152610fe28160e0850160208c01610f9f565b6001600160a01b03978816602084015260408301969096525060608101939093529316608082015291151560a0830152601f01601f19160160e001919050565b80356001600160a01b038116811461103957600080fd5b919050565b600082601f83011261104f57600080fd5b8135602067ffffffffffffffff82111561106b5761106b610e31565b8160051b61107a828201610e70565b928352848101820192828101908785111561109457600080fd5b83870192505b848310156110ba576110ab83611022565b8252918301919083019061109a565b979650505050505050565b80151581146110d357600080fd5b50565b8035611039816110c5565b6000602082840312156110f357600080fd5b813567ffffffffffffffff8082111561110b57600080fd5b9083019060e0828603121561111f57600080fd5b611127610e47565b82358281111561113657600080fd5b61114287828601610ea1565b82525061115160208401611022565b60208201526040830135604082015260608301358281111561117257600080fd5b61117e8782860161103e565b6060830152506080830135608082015261119a60a08401611022565b60a08201526111ab60c084016110d6565b60c082015295945050505050565b6000602082840312156111cb57600080fd5b81516111d6816110c5565b9392505050565b6020808252600d908201526c1058d8d95cdcc811195b9a5959609a1b604082015260600190565b60008251611216818460208701610f9f565b9190910192915050565b6020808252601290820152715461736b206973206e6f742061637469766560701b604082015260600190565b634e487b7160e01b600052603260045260246000fd5b60006001820161128257634e487b7160e01b600052601160045260246000fd5b5060010190565b600181811c9082168061129d57607f821691505b6020821081036112bd57634e487b7160e01b600052602260045260246000fd5b50919050565b601f82111561130d57600081815260208120601f850160051c810160208610156112ea5750805b601f850160051c820191505b81811015611309578281556001016112f6565b5050505b505050565b815167ffffffffffffffff81111561132c5761132c610e31565b6113408161133a8454611289565b846112c3565b602080601f831160018114611375576000841561135d5750858301515b600019600386901b1c1916600185901b178555611309565b600085815260208120601f198616915b828110156113a457888601518255948401946001909101908401611385565b50858210156113c25787850151600019600388901b60f8161c191681555b5050505050600190811b0190555056fea2646970667358221220f81912973c69beaa093ef615c57cf6726cca3b10ed400edcbbfe04fad0ddfd2464736f6c63430008140033",
  "linkReferences": {},
  "deployedLinkReferences": {}
}