{
  "_format": "hh-sol-artifact-1",
  "contractName": "RewardToken",
  "sourceName": "src/contracts/RewardToken.sol",
  "abi": [
    {
      "inputs": [
        {
          "internalType": "bytes32",
          "name": "_appId",
          "type": "bytes32"
        },
        {
          "internalType": "string",
          "name": "_name",
          "type": "string"
        },
        {
          "internalType": "string",
          "name": "_symbol",
          "type": "string"
        },
        {
          "internalType": "uint8",
          "name": "_decimals",
          "type": "uint8"
        },
        {
          "internalType": "address",
          "name": "_accessManager",
          "type": "address"
        },
        {
          "internalType": "address",
          "name": "_forwarder",
          "type": "address"
        }
      ],
      "stateMutability": "nonpayable",
      "type": "constructor"
    },
    {
      "inputs": [
        {
          "internalType": "address",
          "name": "spender",
          "type": "address"
        },
        {
          "internalType": "uint256",
          "name": "allowance",
          "type": "uint256"
        },
        {
          "internalType": "uint256",
          "name": "needed",
          "type": "uint256"
        }
      ],
      "name": "ERC20InsufficientAllowance",
      "type": "error"
    },
    {
      "inputs": [
        {
          "internalType": "address",
          "name": "sender",
          "type": "address"
        },
        {
          "internalType": "uint256",
          "name": "balance",
          "type": "uint256"
        },
        {
          "internalType": "uint256",
          "name": "needed",
          "type": "uint256"
        }
      ],
      "name": "ERC20InsufficientBalance",
      "type": "error"
    },
    {
      "inputs": [
        {
          "internalType": "address",
          "name": "approver",
          "type": "address"
        }
      ],
      "name": "ERC20InvalidApprover",
      "type": "error"
    },
    {
      "inputs": [
        {
          "internalType": "address",
          "name": "receiver",
          "type": "address"
        }
      ],
      "name": "ERC20InvalidReceiver",
      "type": "error"
    },
    {
      "inputs": [
        {
          "internalType": "address",
          "name": "sender",
          "type": "address"
        }
      ],
      "name": "ERC20InvalidSender",
      "type": "error"
    },
    {
      "inputs": [
        {
          "internalType": "address",
          "name": "spender",
          "type": "address"
        }
      ],
      "name": "ERC20InvalidSpender",
      "type": "error"
    },
    {
      "anonymous": false,
      "inputs": [
        {
          "indexed": true,
          "internalType": "address",
          "name": "owner",
          "type": "address"
        },
        {
          "indexed": true,
          "internalType": "address",
          "name": "spender",
          "type": "address"
        },
        {
          "indexed": false,
          "internalType": "uint256",
          "name": "value",
          "type": "uint256"
        }
      ],
      "name": "Approval",
      "type": "event"
    },
    {
      "anonymous": false,
      "inputs": [
        {
          "indexed": true,
          "internalType": "address",
          "name": "from",
          "type": "address"
        },
        {
          "indexed": true,
          "internalType": "address",
          "name": "to",
          "type": "address"
        },
        {
          "indexed": false,
          "internalType": "uint256",
          "name": "value",
          "type": "uint256"
        }
      ],
      "name": "Transfer",
      "type": "event"
    },
    {
      "inputs": [],
      "name": "MINTER_ROLE",
      "outputs": [
        {
          "internalType": "bytes32",
          "name": "",
          "type": "bytes32"
        }
      ],
      "stateMutability": "view",
      "type": "function"
    },
    {
      "inputs": [],
      "name": "accessManager",
      "outputs": [
        {
          "internalType": "contract IAccessManagerV2",
          "name": "",
          "type": "address"
        }
      ],
      "stateMutability": "view",
      "type": "function"
    },
    {
      "inputs": [
        {
          "internalType": "address",
          "name": "owner",
          "type": "address"
        },
        {
          "internalType": "address",
          "name": "spender",
          "type": "address"
        }
      ],
      "name": "allowance",
      "outputs": [
        {
          "internalType": "uint256",
          "name": "",
          "type": "uint256"
        }
      ],
      "stateMutability": "view",
      "type": "function"
    },
    {
      "inputs": [],
      "name": "appId",
      "outputs": [
        {
          "internalType": "bytes32",
          "name": "",
          "type": "bytes32"
        }
      ],
      "stateMutability": "view",
      "type": "function"
    },
    {
      "inputs": [
        {
          "internalType": "address",
          "name": "spender",
          "type": "address"
        },
        {
          "internalType": "uint256",
          "name": "value",
          "type": "uint256"
        }
      ],
      "name": "approve",
      "outputs": [
        {
          "internalType": "bool",
          "name": "",
          "type": "bool"
        }
      ],
      "stateMutability": "nonpayable",
      "type": "function"
    },
    {
      "inputs": [
        {
          "internalType": "address",
          "name": "account",
          "type": "address"
        }
      ],
      "name": "balanceOf",
      "outputs": [
        {
          "internalType": "uint256",
          "name": "",
          "type": "uint256"
        }
      ],
      "stateMutability": "view",
      "type": "function"
    },
    {
      "inputs": [
        {
          "internalType": "uint256",
          "name": "value",
          "type": "uint256"
        }
      ],
      "name": "burn",
      "outputs": [],
      "stateMutability": "nonpayable",
      "type": "function"
    },
    {
      "inputs": [
        {
          "internalType": "address",
          "name": "account",
          "type": "address"
        },
        {
          "internalType": "uint256",
          "name": "value",
          "type": "uint256"
        }
      ],
      "name": "burnFrom",
      "outputs": [],
      "stateMutability": "nonpayable",
      "type": "function"
    },
    {
      "inputs": [],
      "name": "decimals",
      "outputs": [
        {
          "internalType": "uint8",
          "name": "",
          "type": "uint8"
        }
      ],
      "stateMutability": "view",
      "type": "function"
    },
    {
      "inputs": [
        {
          "internalType": "address",
          "name": "forwarder",
          "type": "address"
        }
      ],
      "name": "isTrustedForwarder",
      "outputs": [
        {
          "internalType": "bool",
          "name": "",
          "type": "bool"
        }
      ],
      "stateMutability": "view",
      "type": "function"
    },
    {
      "inputs": [
        {
          "internalType": "address",
          "name": "_address",
          "type": "address"
        },
        {
          "internalType": "uint256",
          "name": "_amount",
          "type": "uint256"
        }
      ],
      "name": "mint",
      "outputs": [
        {
          "internalType": "uint256",
          "name": "",
          "type": "uint256"
        }
      ],
      "stateMutability": "nonpayable",
      "type": "function"
    },
    {
      "inputs": [],
      "name": "name",
      "outputs": [
        {
          "internalType": "string",
          "name": "",
          "type": "string"
        }
      ],
      "stateMutability": "view",
      "type": "function"
    },
    {
      "inputs": [],
      "name": "symbol",
      "outputs": [
        {
          "internalType": "string",
          "name": "",
          "type": "string"
        }
      ],
      "stateMutability": "view",
      "type": "function"
    },
    {
      "inputs": [],
      "name": "totalSupply",
      "outputs": [
        {
          "internalType": "uint256",
          "name": "",
          "type": "uint256"
        }
      ],
      "stateMutability": "view",
      "type": "function"
    },
    {
      "inputs": [
        {
          "internalType": "address",
          "name": "to",
          "type": "address"
        },
        {
          "internalType": "uint256",
          "name": "value",
          "type": "uint256"
        }
      ],
      "name": "transfer",
      "outputs": [
        {
          "internalType": "bool",
          "name": "",
          "type": "bool"
        }
      ],
      "stateMutability": "nonpayable",
      "type": "function"
    },
    {
      "inputs": [
        {
          "internalType": "address",
          "name": "from",
          "type": "address"
        },
        {
          "internalType": "address",
          "name": "to",
          "type": "address"
        },
        {
          "internalType": "uint256",
          "name": "value",
          "type": "uint256"
        }
      ],
      "name": "transferFrom",
      "outputs": [
        {
          "internalType": "bool",
          "name": "",
          "type": "bool"
        }
      ],
      "stateMutability": "nonpayable",
      "type": "function"
    },
    {
      "inputs": [],
      "name": "trustedForwarder",
      "outputs": [
        {
          "internalType": "address",
          "name": "",
          "type": "address"
        }
      ],
      "stateMutability": "view",
      "type": "function"
    }
  ],
  "bytecode": "0x60a06040523480156200001157600080fd5b5060405162000f4838038062000f4883398101604081905262000034916200017c565b8085856003620000458382620002bd565b506004620000548282620002bd565b5050506001600160a01b03908116608052600696909655506005805491909516610100026001600160a81b031990911660ff909216919091171790925550620003899050565b634e487b7160e01b600052604160045260246000fd5b600082601f830112620000c257600080fd5b81516001600160401b0380821115620000df57620000df6200009a565b604051601f8301601f19908116603f011681019082821181831017156200010a576200010a6200009a565b816040528381526020925086838588010111156200012757600080fd5b600091505b838210156200014b57858201830151818301840152908201906200012c565b600093810190920192909252949350505050565b80516001600160a01b03811681146200017757600080fd5b919050565b60008060008060008060c087890312156200019657600080fd5b865160208801519096506001600160401b0380821115620001b657600080fd5b620001c48a838b01620000b0565b96506040890151915080821115620001db57600080fd5b50620001ea89828a01620000b0565b945050606087015160ff811681146200020257600080fd5b925062000212608088016200015f565b91506200022260a088016200015f565b90509295509295509295565b600181811c908216806200024357607f821691505b6020821081036200026457634e487b7160e01b600052602260045260246000fd5b50919050565b601f821115620002b857600081815260208120601f850160051c81016020861015620002935750805b601f850160051c820191505b81811015620002b4578281556001016200029f565b5050505b505050565b81516001600160401b03811115620002d957620002d96200009a565b620002f181620002ea84546200022e565b846200026a565b602080601f831160018114620003295760008415620003105750858301515b600019600386901b1c1916600185901b178555620002b4565b600085815260208120601f198616915b828110156200035a5788860151825594840194600190910190840162000339565b5085821015620003795787850151600019600388901b60f8161c191681555b5050505050600190811b01905550565b608051610b95620003b3600039600081816101c30152818161023101526106cc0152610b956000f3fe608060405234801561001057600080fd5b506004361061010b5760003560e01c806370a08231116100a257806395d89b411161007157806395d89b4114610272578063a9059cbb1461027a578063d53913931461028d578063dd62ed3e146102b4578063fdcb6068146102ed57600080fd5b806370a08231146101f357806379cc67901461021c5780637da0a8771461022f57806380afdea81461026957600080fd5b8063313ce567116100de578063313ce5671461017657806340c10f191461018b57806342966c681461019e578063572b6c05146101b357600080fd5b806306fdde0314610110578063095ea7b31461012e57806318160ddd1461015157806323b872dd14610163575b600080fd5b610118610305565b6040516101259190610930565b60405180910390f35b61014161013c36600461099a565b610397565b6040519015158152602001610125565b6002545b604051908152602001610125565b6101416101713660046109c4565b6103bb565b60055460405160ff9091168152602001610125565b61015561019936600461099a565b6103e9565b6101b16101ac366004610a00565b6104f6565b005b6101416101c1366004610a19565b7f00000000000000000000000000000000000000000000000000000000000000006001600160a01b0390811691161490565b610155610201366004610a19565b6001600160a01b031660009081526020819052604090205490565b6101b161022a36600461099a565b61050a565b7f00000000000000000000000000000000000000000000000000000000000000005b6040516001600160a01b039091168152602001610125565b61015560065481565b61011861052a565b61014161028836600461099a565b610539565b6101557ff0887ba65ee2024ea881d91b74c2450ef19e1557f03bed3ea9f16b037cbe2dc981565b6101556102c2366004610a3b565b6001600160a01b03918216600090815260016020908152604080832093909416825291909152205490565b6005546102519061010090046001600160a01b031681565b60606003805461031490610a6e565b80601f016020809104026020016040519081016040528092919081815260200182805461034090610a6e565b801561038d5780601f106103625761010080835404028352916020019161038d565b820191906000526020600020905b81548152906001019060200180831161037057829003601f168201915b5050505050905090565b6000806103a2610551565b90506103af818585610560565b60019150505b92915050565b6000806103c6610551565b90506103d3858285610572565b6103de8585856105f1565b506001949350505050565b60055460065460009161010090046001600160a01b03169063ec224ee2907ff0887ba65ee2024ea881d91b74c2450ef19e1557f03bed3ea9f16b037cbe2dc9610430610551565b6040516001600160e01b031960e086901b168152600481019390935260248301919091526001600160a01b03166044820152606401602060405180830381865afa158015610482573d6000803e3d6000fd5b505050506040513d601f19601f820116820180604052508101906104a69190610aa2565b6104e65760405162461bcd60e51b815260206004820152600c60248201526b2737ba10309036b4b73a32b960a11b60448201526064015b60405180910390fd5b6104f08383610650565b50919050565b610507610501610551565b82610686565b50565b61051c82610516610551565b83610572565b6105268282610686565b5050565b60606004805461031490610a6e565b600080610544610551565b90506103af8185856105f1565b600061055b6106bc565b905090565b61056d8383836001610731565b505050565b6001600160a01b038381166000908152600160209081526040808320938616835292905220546000198110156105eb57818110156105dc57604051637dc7a0d960e11b81526001600160a01b038416600482015260248101829052604481018390526064016104dd565b6105eb84848484036000610731565b50505050565b6001600160a01b03831661061b57604051634b637e8f60e11b8152600060048201526024016104dd565b6001600160a01b0382166106455760405163ec442f0560e01b8152600060048201526024016104dd565b61056d838383610806565b6001600160a01b03821661067a5760405163ec442f0560e01b8152600060048201526024016104dd565b61052660008383610806565b6001600160a01b0382166106b057604051634b637e8f60e11b8152600060048201526024016104dd565b61052682600083610806565b6000366014336001600160a01b037f0000000000000000000000000000000000000000000000000000000000000000161480156106f95750808210155b156107295760003661070b8385610ada565b610716928290610aed565b61071f91610b17565b60601c9250505090565b339250505090565b6001600160a01b03841661075b5760405163e602df0560e01b8152600060048201526024016104dd565b6001600160a01b03831661078557604051634a1406b160e11b8152600060048201526024016104dd565b6001600160a01b03808516600090815260016020908152604080832093871683529290522082905580156105eb57826001600160a01b0316846001600160a01b03167f8c5be1e5ebec7d5bd14f71427d1e84f3dd0314c0f7b2291e5b200ac8c7c3b925846040516107f891815260200190565b60405180910390a350505050565b6001600160a01b0383166108315780600260008282546108269190610b4c565b909155506108a39050565b6001600160a01b038316600090815260208190526040902054818110156108845760405163391434e360e21b81526001600160a01b038516600482015260248101829052604481018390526064016104dd565b6001600160a01b03841660009081526020819052604090209082900390555b6001600160a01b0382166108bf576002805482900390556108de565b6001600160a01b03821660009081526020819052604090208054820190555b816001600160a01b0316836001600160a01b03167fddf252ad1be2c89b69c2b068fc378daa952ba7f163c4a11628f55a4df523b3ef8360405161092391815260200190565b60405180910390a3505050565b600060208083528351808285015260005b8181101561095d57858101830151858201604001528201610941565b506000604082860101526040601f19601f8301168501019250505092915050565b80356001600160a01b038116811461099557600080fd5b919050565b600080604083850312156109ad57600080fd5b6109b68361097e565b946020939093013593505050565b6000806000606084860312156109d957600080fd5b6109e28461097e565b92506109f06020850161097e565b9150604084013590509250925092565b600060208284031215610a1257600080fd5b5035919050565b600060208284031215610a2b57600080fd5b610a348261097e565b9392505050565b60008060408385031215610a4e57600080fd5b610a578361097e565b9150610a656020840161097e565b90509250929050565b600181811c90821680610a8257607f821691505b6020821081036104f057634e487b7160e01b600052602260045260246000fd5b600060208284031215610ab457600080fd5b81518015158114610a3457600080fd5b634e487b7160e01b600052601160045260246000fd5b818103818111156103b5576103b5610ac4565b60008085851115610afd57600080fd5b83861115610b0a57600080fd5b5050820193919092039150565b6bffffffffffffffffffffffff198135818116916014851015610b445780818660140360031b1b83161692505b505092915050565b808201808211156103b5576103b5610ac456fea2646970667358221220c45f967526d0271e9acec0847a5c086e59aedae7a7e0825516049d144efe8a0864736f6c63430008140033",
  "linkReferences": {},
  "deployedLinkReferences": {}
}